{
  "abi": [
    {
      "inputs": [
        {
          "internalType": "string",
          "name": "name_",
          "type": "string"
        },
        {
          "internalType": "string",
          "name": "symbol_",
          "type": "string"
        },
        {
          "internalType": "uint256",
          "name": "maxMint_",
          "type": "uint256"
        },
        {
          "internalType": "uint120",
          "name": "publicPrice_",
          "type": "uint120"
        },
        {
          "internalType": "uint96",
          "name": "initialTokenSupply",
          "type": "uint96"
        },
        {
          "internalType": "address",
          "name": "initialSupplyOwner",
          "type": "address"
        }
      ],
      "stateMutability": "nonpayable",
      "type": "constructor"
    },
    {
      "inputs": [],
      "name": "AlreadyInitialized",
      "type": "error"
    },
    {
      "inputs": [],
      "name": "ApprovalCallerNotOwnerNorApproved",
      "type": "error"
    },
    {
      "inputs": [],
      "name": "DNAlreadyInitialized",
      "type": "error"
    },
    {
      "inputs": [],
      "name": "ExceedsMaxMint",
      "type": "error"
    },
    {
      "inputs": [],
      "name": "InsufficientAllowance",
      "type": "error"
    },
    {
      "inputs": [],
      "name": "InsufficientBalance",
      "type": "error"
    },
    {
      "inputs": [],
      "name": "InvalidMint",
      "type": "error"
    },
    {
      "inputs": [],
      "name": "InvalidPrice",
      "type": "error"
    },
    {
      "inputs": [],
      "name": "InvalidProof",
      "type": "error"
    },
    {
      "inputs": [],
      "name": "LinkMirrorContractFailed",
      "type": "error"
    },
    {
      "inputs": [],
      "name": "MirrorAddressIsZero",
      "type": "error"
    },
    {
      "inputs": [],
      "name": "NewOwnerIsZeroAddress",
      "type": "error"
    },
    {
      "inputs": [],
      "name": "NoHandoverRequest",
      "type": "error"
    },
    {
      "inputs": [],
      "name": "NotLive",
      "type": "error"
    },
    {
      "inputs": [],
      "name": "SenderNotMirror",
      "type": "error"
    },
    {
      "inputs": [],
      "name": "TokenDoesNotExist",
      "type": "error"
    },
    {
      "inputs": [],
      "name": "TotalSupplyOverflow",
      "type": "error"
    },
    {
      "inputs": [],
      "name": "TotalSupplyReached",
      "type": "error"
    },
    {
      "inputs": [],
      "name": "TransferCallerNotOwnerNorApproved",
      "type": "error"
    },
    {
      "inputs": [],
      "name": "TransferFromIncorrectOwner",
      "type": "error"
    },
    {
      "inputs": [],
      "name": "TransferToZeroAddress",
      "type": "error"
    },
    {
      "inputs": [],
      "name": "Unauthorized",
      "type": "error"
    },
    {
      "anonymous": false,
      "inputs": [
        {
          "indexed": true,
          "internalType": "address",
          "name": "owner",
          "type": "address"
        },
        {
          "indexed": true,
          "internalType": "address",
          "name": "spender",
          "type": "address"
        },
        {
          "indexed": false,
          "internalType": "uint256",
          "name": "amount",
          "type": "uint256"
        }
      ],
      "name": "Approval",
      "type": "event"
    },
    {
      "anonymous": false,
      "inputs": [
        {
          "indexed": true,
          "internalType": "address",
          "name": "pendingOwner",
          "type": "address"
        }
      ],
      "name": "OwnershipHandoverCanceled",
      "type": "event"
    },
    {
      "anonymous": false,
      "inputs": [
        {
          "indexed": true,
          "internalType": "address",
          "name": "pendingOwner",
          "type": "address"
        }
      ],
      "name": "OwnershipHandoverRequested",
      "type": "event"
    },
    {
      "anonymous": false,
      "inputs": [
        {
          "indexed": true,
          "internalType": "address",
          "name": "oldOwner",
          "type": "address"
        },
        {
          "indexed": true,
          "internalType": "address",
          "name": "newOwner",
          "type": "address"
        }
      ],
      "name": "OwnershipTransferred",
      "type": "event"
    },
    {
      "anonymous": false,
      "inputs": [
        {
          "indexed": true,
          "internalType": "address",
          "name": "target",
          "type": "address"
        },
        {
          "indexed": false,
          "internalType": "bool",
          "name": "status",
          "type": "bool"
        }
      ],
      "name": "SkipNFTSet",
      "type": "event"
    },
    {
      "anonymous": false,
      "inputs": [
        {
          "indexed": true,
          "internalType": "address",
          "name": "from",
          "type": "address"
        },
        {
          "indexed": true,
          "internalType": "address",
          "name": "to",
          "type": "address"
        },
        {
          "indexed": false,
          "internalType": "uint256",
          "name": "amount",
          "type": "uint256"
        }
      ],
      "name": "Transfer",
      "type": "event"
    },
    {
      "stateMutability": "payable",
      "type": "fallback"
    },
    {
      "inputs": [],
      "name": "MAX_SUPPLY",
      "outputs": [
        {
          "internalType": "uint256",
          "name": "",
          "type": "uint256"
        }
      ],
      "stateMutability": "view",
      "type": "function"
    },
    {
      "inputs": [
        {
          "internalType": "address",
          "name": "owner",
          "type": "address"
        },
        {
          "internalType": "address",
          "name": "spender",
          "type": "address"
        }
      ],
      "name": "allowance",
      "outputs": [
        {
          "internalType": "uint256",
          "name": "",
          "type": "uint256"
        }
      ],
      "stateMutability": "view",
      "type": "function"
    },
    {
      "inputs": [
        {
          "internalType": "address",
          "name": "spender",
          "type": "address"
        },
        {
          "internalType": "uint256",
          "name": "amount",
          "type": "uint256"
        }
      ],
      "name": "approve",
      "outputs": [
        {
          "internalType": "bool",
          "name": "",
          "type": "bool"
        }
      ],
      "stateMutability": "nonpayable",
      "type": "function"
    },
    {
      "inputs": [
        {
          "internalType": "address",
          "name": "owner",
          "type": "address"
        }
      ],
      "name": "balanceOf",
      "outputs": [
        {
          "internalType": "uint256",
          "name": "",
          "type": "uint256"
        }
      ],
      "stateMutability": "view",
      "type": "function"
    },
    {
      "inputs": [],
      "name": "cancelOwnershipHandover",
      "outputs": [],
      "stateMutability": "payable",
      "type": "function"
    },
    {
      "inputs": [
        {
          "internalType": "address",
          "name": "pendingOwner",
          "type": "address"
        }
      ],
      "name": "completeOwnershipHandover",
      "outputs": [],
      "stateMutability": "payable",
      "type": "function"
    },
    {
      "inputs": [],
      "name": "decimals",
      "outputs": [
        {
          "internalType": "uint8",
          "name": "",
          "type": "uint8"
        }
      ],
      "stateMutability": "pure",
      "type": "function"
    },
    {
      "inputs": [
        {
          "internalType": "address",
          "name": "a",
          "type": "address"
        }
      ],
      "name": "getSkipNFT",
      "outputs": [
        {
          "internalType": "bool",
          "name": "",
          "type": "bool"
        }
      ],
      "stateMutability": "view",
      "type": "function"
    },
    {
      "inputs": [],
      "name": "live",
      "outputs": [
        {
          "internalType": "bool",
          "name": "",
          "type": "bool"
        }
      ],
      "stateMutability": "view",
      "type": "function"
    },
    {
      "inputs": [],
      "name": "maxMint",
      "outputs": [
        {
          "internalType": "uint256",
          "name": "",
          "type": "uint256"
        }
      ],
      "stateMutability": "view",
      "type": "function"
    },
    {
      "inputs": [
        {
          "internalType": "uint256",
          "name": "amount",
          "type": "uint256"
        }
      ],
      "name": "mint",
      "outputs": [],
      "stateMutability": "payable",
      "type": "function"
    },
    {
      "inputs": [
        {
          "internalType": "address",
          "name": "",
          "type": "address"
        }
      ],
      "name": "minted",
      "outputs": [
        {
          "internalType": "bool",
          "name": "",
          "type": "bool"
        }
      ],
      "stateMutability": "view",
      "type": "function"
    },
    {
      "inputs": [],
      "name": "mirrorERC721",
      "outputs": [
        {
          "internalType": "address",
          "name": "",
          "type": "address"
        }
      ],
      "stateMutability": "view",
      "type": "function"
    },
    {
      "inputs": [],
      "name": "name",
      "outputs": [
        {
          "internalType": "string",
          "name": "",
          "type": "string"
        }
      ],
      "stateMutability": "view",
      "type": "function"
    },
    {
      "inputs": [],
      "name": "numMinted",
      "outputs": [
        {
          "internalType": "uint256",
          "name": "",
          "type": "uint256"
        }
      ],
      "stateMutability": "view",
      "type": "function"
    },
    {
      "inputs": [],
      "name": "owner",
      "outputs": [
        {
          "internalType": "address",
          "name": "result",
          "type": "address"
        }
      ],
      "stateMutability": "view",
      "type": "function"
    },
    {
      "inputs": [
        {
          "internalType": "address",
          "name": "pendingOwner",
          "type": "address"
        }
      ],
      "name": "ownershipHandoverExpiresAt",
      "outputs": [
        {
          "internalType": "uint256",
          "name": "result",
          "type": "uint256"
        }
      ],
      "stateMutability": "view",
      "type": "function"
    },
    {
      "inputs": [],
      "name": "publicPrice",
      "outputs": [
        {
          "internalType": "uint120",
          "name": "",
          "type": "uint120"
        }
      ],
      "stateMutability": "view",
      "type": "function"
    },
    {
      "inputs": [],
      "name": "renounceOwnership",
      "outputs": [],
      "stateMutability": "payable",
      "type": "function"
    },
    {
      "inputs": [],
      "name": "requestOwnershipHandover",
      "outputs": [],
      "stateMutability": "payable",
      "type": "function"
    },
    {
      "inputs": [
        {
          "internalType": "string",
          "name": "baseURI_",
          "type": "string"
        }
      ],
      "name": "setBaseURI",
      "outputs": [],
      "stateMutability": "nonpayable",
      "type": "function"
    },
    {
      "inputs": [
        {
          "internalType": "uint256",
          "name": "maxMint_",
          "type": "uint256"
        }
      ],
      "name": "setMaxMint",
      "outputs": [],
      "stateMutability": "nonpayable",
      "type": "function"
    },
    {
      "inputs": [
        {
          "internalType": "uint120",
          "name": "publicPrice_",
          "type": "uint120"
        }
      ],
      "name": "setPrices",
      "outputs": [],
      "stateMutability": "nonpayable",
      "type": "function"
    },
    {
      "inputs": [
        {
          "internalType": "bool",
          "name": "skipNFT",
          "type": "bool"
        }
      ],
      "name": "setSkipNFT",
      "outputs": [],
      "stateMutability": "nonpayable",
      "type": "function"
    },
    {
      "inputs": [],
      "name": "symbol",
      "outputs": [
        {
          "internalType": "string",
          "name": "",
          "type": "string"
        }
      ],
      "stateMutability": "view",
      "type": "function"
    },
    {
      "inputs": [],
      "name": "toggleLive",
      "outputs": [],
      "stateMutability": "nonpayable",
      "type": "function"
    },
    {
      "inputs": [
        {
          "internalType": "uint256",
          "name": "tokenId",
          "type": "uint256"
        }
      ],
      "name": "tokenURI",
      "outputs": [
        {
          "internalType": "string",
          "name": "result",
          "type": "string"
        }
      ],
      "stateMutability": "view",
      "type": "function"
    },
    {
      "inputs": [],
      "name": "totalSupply",
      "outputs": [
        {
          "internalType": "uint256",
          "name": "",
          "type": "uint256"
        }
      ],
      "stateMutability": "view",
      "type": "function"
    },
    {
      "inputs": [
        {
          "internalType": "address",
          "name": "to",
          "type": "address"
        },
        {
          "internalType": "uint256",
          "name": "amount",
          "type": "uint256"
        }
      ],
      "name": "transfer",
      "outputs": [
        {
          "internalType": "bool",
          "name": "",
          "type": "bool"
        }
      ],
      "stateMutability": "nonpayable",
      "type": "function"
    },
    {
      "inputs": [
        {
          "internalType": "address",
          "name": "from",
          "type": "address"
        },
        {
          "internalType": "address",
          "name": "to",
          "type": "address"
        },
        {
          "internalType": "uint256",
          "name": "amount",
          "type": "uint256"
        }
      ],
      "name": "transferFrom",
      "outputs": [
        {
          "internalType": "bool",
          "name": "",
          "type": "bool"
        }
      ],
      "stateMutability": "nonpayable",
      "type": "function"
    },
    {
      "inputs": [
        {
          "internalType": "address",
          "name": "newOwner",
          "type": "address"
        }
      ],
      "name": "transferOwnership",
      "outputs": [],
      "stateMutability": "payable",
      "type": "function"
    },
    {
      "inputs": [],
      "name": "withdraw",
      "outputs": [],
      "stateMutability": "nonpayable",
      "type": "function"
    },
    {
      "stateMutability": "payable",
      "type": "receive"
    }
  ],
  "bytecode": {
    "object": "0x60806040523480156200001157600080fd5b50604051620037f5380380620037f583398101604081905262000034916200050b565b6200003f33620000e3565b60006200004d87826200065b565b5060016200005c86826200065b565b506004849055600380546001600160781b0319166001600160781b038516179055604051600090339062000090906200041b565b6001600160a01b039091168152602001604051809103906000f080158015620000bd573d6000803e3d6000fd5b509050620000d66001600160601b038416838362000120565b5050505050505062000727565b6001600160a01b0316638b78c6d8198190558060007f8be0079c531659141344cd1fd0a4f28419497f9722a3daafe3b4186f6b6457e08180a35b50565b68a20d6e21d0e52553088054640100000000900463ffffffff16156200015957604051633ab534b960e21b815260040160405180910390fd5b6001600160a01b03821662000181576040516339a84a7b60e01b815260040160405180910390fd5b6200018c82620002c6565b805463ffffffff60201b19166401000000001781556001810180546001600160a01b0384166001600160a01b03199091161790558315620002c0576001600160a01b038316620001ef57604051633a954ecd60e21b815260040160405180910390fd5b6b0de0b6b39983494c589bffff8411156200021d5760405163e5cfe95760e01b815260040160405180910390fd5b8054600160601b600160c01b0319166c010000000000000000000000006001600160601b0386160217815560006200025584620002f9565b80546001600160a01b03908116600160a01b6001600160601b038916021782556040518781529192508516906000907fddf252ad1be2c89b69c2b068fc378daa952ba7f163c4a11628f55a4df523b3ef9060200160405180910390a3620002be84600162000377565b505b50505050565b630f4599e560005233602052602060006024601c6000855af1600160005114166200011d5763d125259c6000526004601cfd5b6001600160a01b038116600090815268a20d6e21d0e5255310602052604081208054909168a20d6e21d0e5255308916b0100000000000000000000009004600116900362000371576001833b156200034f576002175b825460ff9091166b0100000000000000000000000260ff60581b199091161782555b50919050565b60006200038483620002f9565b80549091506b0100000000000000000000009004600216151582151514620003d057805460ff6b01000000000000000000000080830482166002189091160260ff60581b199091161781555b826001600160a01b03167fb5a1de456fff688115a4f75380060c23c8532d14ff85f687cc871456d6420393836040516200040e911515815260200190565b60405180910390a2505050565b610ca68062002b4f83390190565b634e487b7160e01b600052604160045260246000fd5b600082601f8301126200045157600080fd5b81516001600160401b03808211156200046e576200046e62000429565b604051601f8301601f19908116603f0116810190828211818310171562000499576200049962000429565b81604052838152602092508683858801011115620004b657600080fd5b600091505b83821015620004da5785820183015181830184015290820190620004bb565b600093810190920192909252949350505050565b80516001600160a01b03811681146200050657600080fd5b919050565b60008060008060008060c087890312156200052557600080fd5b86516001600160401b03808211156200053d57600080fd5b6200054b8a838b016200043f565b975060208901519150808211156200056257600080fd5b506200057189828a016200043f565b604089015160608a0151919750955090506001600160781b03811681146200059857600080fd5b60808801519093506001600160601b0381168114620005b657600080fd5b9150620005c660a08801620004ee565b90509295509295509295565b600181811c90821680620005e757607f821691505b6020821081036200037157634e487b7160e01b600052602260045260246000fd5b601f8211156200065657600081815260208120601f850160051c81016020861015620006315750805b601f850160051c820191505b8181101562000652578281556001016200063d565b5050505b505050565b81516001600160401b0381111562000677576200067762000429565b6200068f81620006888454620005d2565b8462000608565b602080601f831160018114620006c75760008415620006ae5750858301515b600019600386901b1c1916600185901b17855562000652565b600085815260208120601f198616915b82811015620006f857888601518255948401946001909101908401620006d7565b5085821015620007175787850151600019600388901b60f8161c191681555b5050505050600190811b01905550565b61241880620007376000396000f3fe6080604052600436106101e75760003560e01c806370a0823111610102578063a945bf8011610095578063ec0d755711610064578063ec0d75571461097b578063f04e283e14610990578063f2fde38b146109a3578063fee81cf4146109b6576101ee565b8063a945bf80146108bf578063c87b56dd146108f7578063d52079b414610917578063dd62ed3e1461092d576101ee565b8063957aa58c116100d1578063957aa58c1461085657806395d89b4114610877578063a0712d681461088c578063a9059cbb1461089f576101ee565b806370a08231146107d1578063715018a61461081f5780637501f741146108275780638da5cb5b1461083d576101ee565b80632a6a935d1161017a5780634ef41efc116101495780634ef41efc1461074f578063547520fe1461078957806354d1f13d146107a957806355f804b3146107b1576101ee565b80632a6a935d146106e8578063313ce5671461070857806332cb6b0c146107245780633ccfd60b1461073a576101ee565b80631e7269c5116101b65780631e7269c51461067057806323b872dd146106a057806325692962146106c0578063274e430b146106c8576101ee565b806306fdde03146105be578063077a24c8146105e9578063095ea7b31461060957806318160ddd14610639576101ee565b366101ee57005b68a20d6e21d0e525530860003560e01c63e985e9c58190036102945760018201546001600160a01b031633146102375760405163ce5a776b60e01b815260040160405180910390fd5b604436101561024557600080fd5b6004356001600160a01b038181166000908152600385016020908152604080832060243594851684529091529020546102919060ff16610286576000610289565b60015b60ff166109e9565b50505b80636352211e036102f95760018201546001600160a01b031633146102cc5760405163ce5a776b60e01b815260040160405180910390fd5b60243610156102da57600080fd5b6004356102f76102e9826109f3565b6001600160a01b03166109e9565b505b8063e5eb36c8036103665760018201546001600160a01b031633146103315760405163ce5a776b60e01b815260040160405180910390fd5b608436101561033f57600080fd5b60043560243560443560643561035784848484610a2a565b61036160016109e9565b505050505b8063813500fc036104005760018201546001600160a01b0316331461039e5760405163ce5a776b60e01b815260040160405180910390fd5b60643610156103ac57600080fd5b6001600160a01b03604435818116600090815268a20d6e21d0e525530b6020908152604080832060043595861684529091529020805460ff19166024351515908117909155906103fc60016109e9565b5050505b8063d10b6e0c036104615760018201546001600160a01b031633146104385760405163ce5a776b60e01b815260040160405180910390fd5b606436101561044657600080fd5b60043560243560443561045d6102e9848484610db9565b5050505b8063081812fc036104b85760018201546001600160a01b031633146104995760405163ce5a776b60e01b815260040160405180910390fd5b60243610156104a757600080fd5b6004356104b66102e982610e92565b505b8063f5b100ea036105405760018201546001600160a01b031633146104f05760405163ce5a776b60e01b815260040160405180910390fd5b60243610156104fe57600080fd5b60043561053e610539826001600160a01b0316600090815268a20d6e21d0e5255310602052604090205463ffffffff600160801b9091041690565b6109e9565b505b8063e2c79281036105a75760018201546001600160a01b031633146105785760405163ce5a776b60e01b815260040160405180910390fd5b600436101561058657600080fd5b68a20d6e21d0e5255308546105a790600160401b900463ffffffff166109e9565b8063b7a94eb8036105bc576105bc60016109e9565b005b3480156105ca57600080fd5b506105d3610ede565b6040516105e09190611f95565b60405180910390f35b3480156105f557600080fd5b506105bc610604366004611fc8565b610f70565b34801561061557600080fd5b50610629610624366004612008565b610fa2565b60405190151581526020016105e0565b34801561064557600080fd5b5068a20d6e21d0e525530854600160601b90046001600160601b03165b6040519081526020016105e0565b34801561067c57600080fd5b5061062961068b366004612032565b60066020526000908152604090205460ff1681565b3480156106ac57600080fd5b506106296106bb36600461204d565b611018565b6105bc6110bb565b3480156106d457600080fd5b506106296106e3366004612032565b61110b565b3480156106f457600080fd5b506105bc610703366004612089565b61115a565b34801561071457600080fd5b50604051601281526020016105e0565b34801561073057600080fd5b5061066261138881565b34801561074657600080fd5b506105bc611167565b34801561075b57600080fd5b5068a20d6e21d0e5255309546001600160a01b03165b6040516001600160a01b0390911681526020016105e0565b34801561079557600080fd5b506105bc6107a43660046120ab565b61117a565b6105bc611187565b3480156107bd57600080fd5b506105bc6107cc3660046120c4565b6111c3565b3480156107dd57600080fd5b506106626107ec366004612032565b6001600160a01b0316600090815268a20d6e21d0e52553106020526040902054600160a01b90046001600160601b031690565b6105bc6111dd565b34801561083357600080fd5b5061066260045481565b34801561084957600080fd5b50638b78c6d81954610771565b34801561086257600080fd5b5060035461062990600160781b900460ff1681565b34801561088357600080fd5b506105d36111ef565b6105bc61089a3660046120ab565b6111fe565b3480156108ab57600080fd5b506106296108ba366004612008565b611322565b3480156108cb57600080fd5b506003546108df906001600160781b031681565b6040516001600160781b0390911681526020016105e0565b34801561090357600080fd5b506105d36109123660046120ab565b611338565b34801561092357600080fd5b5061066260055481565b34801561093957600080fd5b50610662610948366004612136565b6001600160a01b03918216600090815268a20d6e21d0e525530d6020908152604080832093909416825291909152205490565b34801561098757600080fd5b506105bc611381565b6105bc61099e366004612032565b6113aa565b6105bc6109b1366004612032565b6113e7565b3480156109c257600080fd5b506106626109d1366004612032565b63389a75e1600c908152600091909152602090205490565b8060005260206000f35b60006109fe8261140e565b610a1b5760405163677510db60e11b815260040160405180910390fd5b610a248261142b565b92915050565b68a20d6e21d0e52553086001600160a01b038416610a5b57604051633a954ecd60e21b815260040160405180910390fd5b6000816002016000610a9784600701610a748860011b90565b600381901c600090815260209290925260409091205460059190911b60e0161c90565b63ffffffff1681526020810191909152604001600020546001600160a01b03908116915086168114610adb5760405162a1148160e81b815260040160405180910390fd5b856001600160a01b0316836001600160a01b031614610b5f576001600160a01b03808716600090815260038401602090815260408083209387168352929052205460ff16610b5f5760008481526004830160205260409020546001600160a01b03848116911614610b5f57604051632ce44b5f60e11b815260040160405180910390fd5b6000610b6a87611480565b90506000610b7787611480565b8254909150670de0b6b3a7640000908390601490610ba6908490600160a01b90046001600160601b031661217f565b82546101009290920a6001600160601b0381810219909316918316021790915582546001600160a01b038116670de0b6b3a7640000600160a01b928390048416019092160217825550610c0a60078501600188901b610c05848b6114ec565b61158f565b6000868152600485016020908152604080832080546001600160a01b03191690556001600160a01b038b168352600687018252808320855463ffffffff60801b198116600160801b9182900463ffffffff90811660001901908116909202178755631fffffff600382901c168552925282205460059190911b60e0161c6001600160a01b038a166000908152600687016020526040902063ffffffff919091169150610cce90610cc26007880160018b811b01610a74565b63ffffffff168361158f565b8154600163ffffffff600160801b80840482169283019091160263ffffffff60801b19909216919091178355610d2060078701610d0e84600190811b0190565b610c0560078a0160018d811b01610a74565b6001600160a01b03891660009081526006870160205260409020610d4590828a61158f565b610d586007870160018a811b018361158f565b5050866001600160a01b0316886001600160a01b03167fddf252ad1be2c89b69c2b068fc378daa952ba7f163c4a11628f55a4df523b3ef670de0b6b3a7640000604051610da791815260200190565b60405180910390a35050505050505050565b600068a20d6e21d0e52553088168a20d6e21d0e525530a81610de868a20d6e21d0e525530f600189901b610a74565b63ffffffff1681526020810191909152604001600020546001600160a01b03908116915084168114610e5c576001600160a01b03808216600090815260038401602090815260408083209388168352929052205460ff16610e5c576040516367d9dca160e11b815260040160405180910390fd5b60008581526004909201602052604090912080546001600160a01b0387166001600160a01b031990911617905590509392505050565b6000610e9d8261140e565b610eba5760405163677510db60e11b815260040160405180910390fd5b50600090815268a20d6e21d0e525530c60205260409020546001600160a01b031690565b606060008054610eed9061219f565b80601f0160208091040260200160405190810160405280929190818152602001828054610f199061219f565b8015610f665780601f10610f3b57610100808354040283529160200191610f66565b820191906000526020600020905b815481529060010190602001808311610f4957829003601f168201915b5050505050905090565b610f786115c3565b600380546effffffffffffffffffffffffffffff19166001600160781b0392909216919091179055565b60008068a20d6e21d0e525530833600081815260058301602090815260408083206001600160a01b038a16808552908352928190208890555187815293945090927f8c5be1e5ebec7d5bd14f71427d1e84f3dd0314c0f7b2291e5b200ac8c7c3b925910160405180910390a35060019392505050565b6001600160a01b038316600090815268a20d6e21d0e525530d6020908152604080832033845290915281205468a20d6e21d0e52553089060001981146110a45780841115611079576040516313be252b60e01b815260040160405180910390fd5b6001600160a01b03861660009081526005830160209081526040808320338452909152902084820390555b6110af8686866115de565b50600195945050505050565b60006202a30067ffffffffffffffff164201905063389a75e1600c5233600052806020600c2055337fdbf36a107da19e49527a7176a1babf963b4b0ff8cde35ee35d6cd8f1f9ac7e1d600080a250565b6001600160a01b038116600090815268a20d6e21d0e5255310602052604081208054600160581b9004600116820361114757823b5b9392505050565b54600160581b9004600216151592915050565b6111643382611aad565b50565b61116f6115c3565b61117833611b3d565b565b6111826115c3565b600455565b63389a75e1600c523360005260006020600c2055337ffa7b8eab7da67f412cc9575ed43464468f9bfbae89d1675917346ca6d8fe3c92600080a2565b6111cb6115c3565b60026111d8828483612237565b505050565b6111e56115c3565b6111786000611b59565b606060018054610eed9061219f565b6003546001600160781b038116908290600160781b900460ff166112355760405163baf13b3f60e01b815260040160405180910390fd5b3461124082846122f8565b1461125d5760405162bfc92160e01b815260040160405180910390fd5b600454811115611280576040516352f7657b60e01b815260040160405180910390fd5b61138881600554611291919061230f565b11156112b057604051637be9badb60e01b815260040160405180910390fd5b3360009081526006602052604090205460ff16156112e15760405163201dc6f560e01b815260040160405180910390fd5b336000818152600660205260409020805460ff191660019081179091556005805490910190556111d89061131d670de0b6b3a7640000866122f8565b611b97565b600061132f3384846115de565b50600192915050565b6060600280546113479061219f565b15905061137c57600261135983611ea8565b60405160200161136a929190612322565b60405160208183030381529060405290505b919050565b6113896115c3565b6003805460ff60781b198116600160781b9182900460ff1615909102179055565b6113b26115c3565b63389a75e1600c52806000526020600c2080544211156113da57636f5e88186000526004601cfd5b6000905561116481611b59565b6113ef6115c3565b8060601b61140557637448fbae6000526004601cfd5b61116481611b59565b60008061141a8361142b565b6001600160a01b0316141592915050565b600068a20d6e21d0e525530868a20d6e21d0e525530a8261145968a20d6e21d0e525530f600187901b610a74565b63ffffffff1681526020810191909152604001600020546001600160a01b03169392505050565b6001600160a01b038116600090815268a20d6e21d0e5255310602052604081208054909168a20d6e21d0e525530891600160581b900460011690036114e6576001833b156114cc576002175b825460ff909116600160581b0260ff60581b199091161782555b50919050565b8154600160601b900463ffffffff1668a20d6e21d0e5255308600082900361158857805481906000906115249063ffffffff166123a9565b825463ffffffff8083166101009490940a848102910219909116179092558554600160601b820263ffffffff60601b199091161786556000908152600283016020526040902080546001600160a01b0386166001600160a01b031990911617905591505b5092915050565b826020528160031c60005260406000206007831660051b815463ffffffff8482841c188116831b8218845550505050505050565b638b78c6d819543314611178576382b429006000526004601cfd5b6001600160a01b03821661160557604051633a954ecd60e21b815260040160405180910390fd5b68a20d6e21d0e5255308600061161a85611480565b9050600061162785611480565b90506116626040518060c001604052806000815260200160008152602001600081526020016000815260200160008152602001600081525090565b825463ffffffff600160801b808304821660808501528454041660a08301526001600160601b03600160a01b90910416604082018190528511156116b957604051631e9acf1760e31b815260040160405180910390fd5b6040810180518690039081905283546001600160601b03808316600160a01b9081026001600160a01b03938416178755855481810483168a0160608701819052909216029116178355608082015161171f91670de0b6b3a7640000900480821191030290565b81528154600160581b900460021660000361178e57856001600160a01b0316876001600160a01b03160361175b57805160808201510360a08201525b611788670de0b6b3a7640000826060015181611779576117796123cc565b048260a0015180821191030290565b60208201525b60006117d882602001518360000151016040805180820190915260608152600060208201526040805101828152806020018360051b81016040528183528083602001525050919050565b8251909150156118d2576001600160a01b0388166000908152600686016020526040902060808301518351875463ffffffff600160401b808304821684900382160263ffffffff60401b199092169190911789558754918303908116600160801b0263ffffffff60801b199092169190911787555b60001991909101600381901c600090815260208490526040812054919291600584901b60e0161c63ffffffff16905061188c8960070182600080611eec565b600081815260048a016020908152604090912080546001600160a01b0319169055858101805160089390931b60608f901b1760011783529101905280820361184d575050505b602082015115611a35576001600160a01b03871660009081526006860160209081526040822060a085015191850151909290820190611911878c6114ec565b8954602088015163ffffffff60401b19821663ffffffff600160401b80850482169093018116909202178c55895463ffffffff60801b1916600160801b86831602178a55919250670de0b6b3a7640000600160601b82046001600160601b03160491640100000000909104165b61198f8b600701610a748360011b90565b63ffffffff16156119ae57600101818111156119a9575060015b61197e565b6119b986868361158f565b6119ce8b600701828588806001019950611eec565b6119f8878e8360008360200151818360081b8560601b171781526020810185602001525050505050565b60010181811115611a07575060015b83850361197e578a5463ffffffff9091166401000000000267ffffffff0000000019909116178a5550505050505b80515115611a56576001850154611a569082906001600160a01b0316611f32565b50856001600160a01b0316876001600160a01b03167fddf252ad1be2c89b69c2b068fc378daa952ba7f163c4a11628f55a4df523b3ef87604051611a9c91815260200190565b60405180910390a350505050505050565b6000611ab883611480565b8054909150600160581b9004600216151582151514611af357805460ff600160581b80830482166002189091160260ff60581b199091161781555b826001600160a01b03167fb5a1de456fff688115a4f75380060c23c8532d14ff85f687cc871456d642039383604051611b30911515815260200190565b60405180910390a2505050565b60003860003847855af16111645763b12d13eb6000526004601cfd5b638b78c6d81980546001600160a01b039092169182907f8be0079c531659141344cd1fd0a4f28419497f9722a3daafe3b4186f6b6457e0600080a355565b6001600160a01b038216611bbe57604051633a954ecd60e21b815260040160405180910390fd5b68a20d6e21d0e52553086000611bd384611480565b8254909150600160601b90046001600160601b031683016b0de0b6b39983494c589bffff841180611c0f57506b0de0b6b39983494c589bffff81115b15611c2d5760405163e5cfe95760e01b815260040160405180910390fd5b82546001600160601b03808316600160601b026bffffffffffffffffffffffff60601b199092169190911784558254600160a01b80820483168701928316026001600160a01b0390911617808455600160581b9004600216600003611e5f576001600160a01b0386166000908152600685016020526040812084549091600160801b90910463ffffffff1690670de0b6b3a7640000840490506000611d0c838303848411026040805180820190915260608152600060208201526040805101828152806020018360051b81016040528183528083602001525050919050565b80515190915015611e5a578754670de0b6b3a7640000600160601b9091046001600160601b0316046000611d40898d6114ec565b8a5484515163ffffffff60401b19821663ffffffff600160401b80850482169093018116909202178d558b5463ffffffff60801b1916600160801b88831602178c559192506401000000009004165b611da08b600701610a748360011b90565b63ffffffff1615611dbf5760010182811115611dba575060015b611d8f565b611dca87878361158f565b611ddf8b600701828489806001019a50611eec565b611e09848e8360008360200151818360081b8560601b171781526020810185602001525050505050565b60010182811115611e18575060015b848603611d8f578a5467ffffffff00000000191664010000000063ffffffff831602178b5560018b0154611e569085906001600160a01b0316611f32565b5050505b505050505b50506040518381526001600160a01b038516906000907fddf252ad1be2c89b69c2b068fc378daa952ba7f163c4a11628f55a4df523b3ef9060200160405180910390a350505050565b60606080604051019050602081016040526000815280600019835b928101926030600a8206018453600a900480611ec3575050819003601f19909101908152919050565b8163ffffffff168160201b17846020528360021c60005260406000206003851660061b815467ffffffffffffffff8482841c188116831b82188455505050505050505050565b81516040810363263c69d68152602080820152815160051b604401915060208183601c84016000875af1600182511416611f6b57600081fd5b50505050565b60005b83811015611f8c578181015183820152602001611f74565b50506000910152565b6020815260008251806020840152611fb4816040850160208701611f71565b601f01601f19169190910160400192915050565b600060208284031215611fda57600080fd5b81356001600160781b038116811461114057600080fd5b80356001600160a01b038116811461137c57600080fd5b6000806040838503121561201b57600080fd5b61202483611ff1565b946020939093013593505050565b60006020828403121561204457600080fd5b61114082611ff1565b60008060006060848603121561206257600080fd5b61206b84611ff1565b925061207960208501611ff1565b9150604084013590509250925092565b60006020828403121561209b57600080fd5b8135801515811461114057600080fd5b6000602082840312156120bd57600080fd5b5035919050565b600080602083850312156120d757600080fd5b823567ffffffffffffffff808211156120ef57600080fd5b818501915085601f83011261210357600080fd5b81358181111561211257600080fd5b86602082850101111561212457600080fd5b60209290920196919550909350505050565b6000806040838503121561214957600080fd5b61215283611ff1565b915061216060208401611ff1565b90509250929050565b634e487b7160e01b600052601160045260246000fd5b6001600160601b0382811682821603908082111561158857611588612169565b600181811c908216806121b357607f821691505b6020821081036114e657634e487b7160e01b600052602260045260246000fd5b634e487b7160e01b600052604160045260246000fd5b601f8211156111d857600081815260208120601f850160051c810160208610156122105750805b601f850160051c820191505b8181101561222f5782815560010161221c565b505050505050565b67ffffffffffffffff83111561224f5761224f6121d3565b6122638361225d835461219f565b836121e9565b6000601f841160018114612297576000851561227f5750838201355b600019600387901b1c1916600186901b1783556122f1565b600083815260209020601f19861690835b828110156122c857868501358255602094850194600190920191016122a8565b50868210156122e55760001960f88860031b161c19848701351681555b505060018560011b0183555b5050505050565b8082028115828204841417610a2457610a24612169565b80820180821115610a2457610a24612169565b60008084546123308161219f565b60018281168015612348576001811461235d5761238c565b60ff198416875282151583028701945061238c565b8860005260208060002060005b858110156123835781548a82015290840190820161236a565b50505082870194505b5050505083516123a0818360208801611f71565b01949350505050565b600063ffffffff8083168181036123c2576123c2612169565b6001019392505050565b634e487b7160e01b600052601260045260246000fdfea2646970667358221220269190afb97a0d299a42cdd1c0b2a7020811b287d313c522b49f6fa3af87ac7264736f6c63430008150033608060405234801561001057600080fd5b50604051610ca6380380610ca683398101604081905261002f9161005c565b683602298b8c10b0123180546001600160a01b0319166001600160a01b039290921691909117905561008c565b60006020828403121561006e57600080fd5b81516001600160a01b038116811461008557600080fd5b9392505050565b610c0b8061009b6000396000f3fe6080604052600436106100ec5760003560e01c80636352211e1161008a578063a22cb46511610059578063a22cb465146103e8578063b88d4fde14610408578063c87b56dd14610428578063e985e9c514610448576100f3565b80636352211e1461037e57806370a082311461039e57806395d89b41146103be57806397e5311c146103d3576100f3565b8063095ea7b3116100c6578063095ea7b31461030857806318160ddd1461032857806323b872dd1461034b57806342842e0e1461036b576100f3565b806301ffc9a71461025c57806306fdde03146102ae578063081812fc146102d0576100f3565b366100f357005b683602298b8c10b0123060003560e01c63263c69d68190036101bf5781546001600160a01b0316331461013957604051631b1e598960e11b815260040160405180910390fd5b602036103d60003e6004356024018036103d60003e602081033560051b81018036103d60003e5b8082146101b25781358060601c816001168260a01b60a81c811583028284027fddf252ad1be2c89b69c2b068fc378daa952ba7f163c4a11628f55a4df523b3ef600038a4505050816020019150610160565b5050600160005260206000f35b80630f4599e50361025a5760018201546001600160a01b0316156102155760018201546001600160a01b03166004356001600160a01b031614610215576040516362cf623d60e11b815260040160405180910390fd5b81546001600160a01b03161561023e57604051635fb2b52360e11b815260040160405180910390fd5b81546001600160a01b0319163317825560016000908152602090f35b005b34801561026857600080fd5b50610299610277366004610996565b6301ffc9a760e09190911c9081146380ac58cd821417635b5e139f9091141790565b60405190151581526020015b60405180910390f35b3480156102ba57600080fd5b506102c3610468565b6040516102a591906109c7565b3480156102dc57600080fd5b506102f06102eb366004610a15565b6104c2565b6040516001600160a01b0390911681526020016102a5565b34801561031457600080fd5b5061025a610323366004610a4a565b610509565b34801561033457600080fd5b5061033d61058f565b6040519081526020016102a5565b34801561035757600080fd5b5061025a610366366004610a74565b6105cd565b61025a610379366004610a74565b61065c565b34801561038a57600080fd5b506102f0610399366004610a15565b61068e565b3480156103aa57600080fd5b5061033d6103b9366004610ab0565b6106c8565b3480156103ca57600080fd5b506102c3610712565b3480156103df57600080fd5b506102f0610744565b3480156103f457600080fd5b5061025a610403366004610acb565b610779565b34801561041457600080fd5b5061025a610423366004610b07565b6107fc565b34801561043457600080fd5b506102c3610443366004610a15565b610857565b34801561045457600080fd5b50610299610463366004610ba2565b6108b7565b60606000610474610744565b905060405191506306fdde036000526000806004601c845afa61049a573d6000833e3d82fd5b60206000803e6020600051833e8151602060005101602084013e815160208301016040525090565b6000806104cd610744565b905063081812fc60005282602052602060006024601c845afa601f3d11166104fc573d60006040513e3d604051fd5b5050600c5160601c919050565b6000610513610744565b90508260601b60601c925060405163d10b6e0c600052836020528260405233606052602060006064601c34865af1601f3d1116610553573d6000823e3d81fd5b806040525060006060528183600c5160601c7f8c5be1e5ebec7d5bd14f71427d1e84f3dd0314c0f7b2291e5b200ac8c7c3b925600038a4505050565b60008061059a610744565b905063e2c79281600052602060006004601c845afa601f3d11166105c5573d60006040513e3d604051fd5b505060005190565b60006105d7610744565b90508360601b60601c93508260601b60601c925060405163e5eb36c881528460208201528360408201528260608201523360808201526020816084601c840134865af160018251141661062d573d6000823e3d81fd5b508183857fddf252ad1be2c89b69c2b068fc378daa952ba7f163c4a11628f55a4df523b3ef600038a450505050565b6106678383836105cd565b813b15610689576106898383836040518060200160405280600081525061090a565b505050565b600080610699610744565b9050636352211e60005282602052602060006024601c845afa601f3d11166104fc573d60006040513e3d604051fd5b6000806106d3610744565b90508260601b60601c60205263f5b100ea600052602060006024601c845afa601f3d1116610708573d60006040513e3d604051fd5b5050600051919050565b6060600061071e610744565b905060405191506395d89b416000526000806004601c845afa61049a573d6000833e3d82fd5b683602298b8c10b01230546001600160a01b03168061077657604051632d9523d760e11b815260040160405180910390fd5b90565b6000610783610744565b90508260601b60601c925060405163813500fc6000528360205282151560405233606052602060006064601c34865af1600160005114166107c7573d6000823e3d81fd5b83337f17307eab39ab6107e8899845ad3d59bd9653f200f220920489ca2b5937696c3160206040a36040525050600060605250565b6108078585856105cd565b833b156108505761085085858585858080601f01602080910402602001604051908101604052809392919081815260200183838082843760009201919091525061090a92505050565b5050505050565b60606000610863610744565b905060405191508260205263c87b56dd6000526000806024601c845afa61088d573d6000833e3d82fd5b60206000803e6020600051833e8151602060005101602084013e8151602083010160405250919050565b6000806108c2610744565b9050604051836040528460601b602c5263e985e9c560601b600c52602060006044601c855afa601f3d11166108fa573d6000823e3d81fd5b6040525050600051151592915050565b60405163150b7a028082523360208301528560601b60601c604083015283606083015260808083015282518060a08401528015610951578060c08401826020870160045afa505b60208360a48301601c860160008a5af1610974573d15610974573d6000843e3d83fd5b508060e01b82511461098e5763d1a57ed66000526004601cfd5b505050505050565b6000602082840312156109a857600080fd5b81356001600160e01b0319811681146109c057600080fd5b9392505050565b600060208083528351808285015260005b818110156109f4578581018301518582016040015282016109d8565b506000604082860101526040601f19601f8301168501019250505092915050565b600060208284031215610a2757600080fd5b5035919050565b80356001600160a01b0381168114610a4557600080fd5b919050565b60008060408385031215610a5d57600080fd5b610a6683610a2e565b946020939093013593505050565b600080600060608486031215610a8957600080fd5b610a9284610a2e565b9250610aa060208501610a2e565b9150604084013590509250925092565b600060208284031215610ac257600080fd5b6109c082610a2e565b60008060408385031215610ade57600080fd5b610ae783610a2e565b915060208301358015158114610afc57600080fd5b809150509250929050565b600080600080600060808688031215610b1f57600080fd5b610b2886610a2e565b9450610b3660208701610a2e565b935060408601359250606086013567ffffffffffffffff80821115610b5a57600080fd5b818801915088601f830112610b6e57600080fd5b813581811115610b7d57600080fd5b896020828501011115610b8f57600080fd5b9699959850939650602001949392505050565b60008060408385031215610bb557600080fd5b610bbe83610a2e565b9150610bcc60208401610a2e565b9050925092905056fea264697066735822122004f4603114a56e60c6f1a55d685ad18703ab440010822724e9779457b09fea7464736f6c63430008150033",
    "linkReferences": {}
  },
  "methodIdentifiers": {
    "MAX_SUPPLY()": "32cb6b0c",
    "allowance(address,address)": "dd62ed3e",
    "approve(address,uint256)": "095ea7b3",
    "balanceOf(address)": "70a08231",
    "cancelOwnershipHandover()": "54d1f13d",
    "completeOwnershipHandover(address)": "f04e283e",
    "decimals()": "313ce567",
    "getSkipNFT(address)": "274e430b",
    "live()": "957aa58c",
    "maxMint()": "7501f741",
    "mint(uint256)": "a0712d68",
    "minted(address)": "1e7269c5",
    "mirrorERC721()": "4ef41efc",
    "name()": "06fdde03",
    "numMinted()": "d52079b4",
    "owner()": "8da5cb5b",
    "ownershipHandoverExpiresAt(address)": "fee81cf4",
    "publicPrice()": "a945bf80",
    "renounceOwnership()": "715018a6",
    "requestOwnershipHandover()": "25692962",
    "setBaseURI(string)": "55f804b3",
    "setMaxMint(uint256)": "547520fe",
    "setPrices(uint120)": "077a24c8",
    "setSkipNFT(bool)": "2a6a935d",
    "symbol()": "95d89b41",
    "toggleLive()": "ec0d7557",
    "tokenURI(uint256)": "c87b56dd",
    "totalSupply()": "18160ddd",
    "transfer(address,uint256)": "a9059cbb",
    "transferFrom(address,address,uint256)": "23b872dd",
    "transferOwnership(address)": "f2fde38b",
    "withdraw()": "3ccfd60b"
  },
  "id": 27
}